{
  "contractName": "Zhihu",
  "abi": [
    {
      "anonymous": false,
      "inputs": [],
      "name": "CreatedAnswerEvent",
      "type": "event"
    },
    {
      "anonymous": false,
      "inputs": [],
      "name": "CreatedQuestionEvent",
      "type": "event"
    },
    {
      "constant": true,
      "inputs": [
        {
          "internalType": "uint256",
          "name": "",
          "type": "uint256"
        }
      ],
      "name": "questions",
      "outputs": [
        {
          "internalType": "string",
          "name": "title",
          "type": "string"
        }
      ],
      "payable": false,
      "stateMutability": "view",
      "type": "function"
    },
    {
      "constant": true,
      "inputs": [],
      "name": "getNumQuests",
      "outputs": [
        {
          "internalType": "uint256",
          "name": "",
          "type": "uint256"
        }
      ],
      "payable": false,
      "stateMutability": "view",
      "type": "function"
    },
    {
      "constant": true,
      "inputs": [
        {
          "internalType": "uint256",
          "name": "questInt",
          "type": "uint256"
        }
      ],
      "name": "getQuest",
      "outputs": [
        {
          "internalType": "uint256",
          "name": "",
          "type": "uint256"
        },
        {
          "internalType": "string",
          "name": "",
          "type": "string"
        },
        {
          "internalType": "address[]",
          "name": "",
          "type": "address[]"
        },
        {
          "internalType": "bool",
          "name": "",
          "type": "bool"
        }
      ],
      "payable": false,
      "stateMutability": "view",
      "type": "function"
    },
    {
      "constant": true,
      "inputs": [
        {
          "internalType": "uint256",
          "name": "questInt",
          "type": "uint256"
        },
        {
          "internalType": "address",
          "name": "some_user",
          "type": "address"
        }
      ],
      "name": "getAnswer",
      "outputs": [
        {
          "internalType": "string",
          "name": "",
          "type": "string"
        }
      ],
      "payable": false,
      "stateMutability": "view",
      "type": "function"
    },
    {
      "constant": false,
      "inputs": [
        {
          "internalType": "string",
          "name": "title",
          "type": "string"
        }
      ],
      "name": "addPost",
      "outputs": [
        {
          "internalType": "bool",
          "name": "",
          "type": "bool"
        }
      ],
      "payable": false,
      "stateMutability": "nonpayable",
      "type": "function"
    },
    {
      "constant": false,
      "inputs": [
        {
          "internalType": "uint256",
          "name": "questInt",
          "type": "uint256"
        },
        {
          "internalType": "string",
          "name": "ans",
          "type": "string"
        }
      ],
      "name": "answer",
      "outputs": [
        {
          "internalType": "bool",
          "name": "",
          "type": "bool"
        }
      ],
      "payable": false,
      "stateMutability": "nonpayable",
      "type": "function"
    }
  ],
  "bytecode": "0x608060405234801561001057600080fd5b50610d3e806100206000396000f3fe608060405234801561001057600080fd5b50600436106100625760003560e01c806327cacb551461006757806331b1b9781461014457806349f86f34146101eb5780635ef25752146102ec578063a63228191461030a578063e3ca7323146103dd575b600080fd5b61012a6004803603604081101561007d57600080fd5b8101908080359060200190929190803590602001906401000000008111156100a457600080fd5b8201836020820111156100b657600080fd5b803590602001918460018302840111640100000000831117156100d857600080fd5b91908080601f016020809104026020016040519081016040528093929190818152602001838380828437600081840152601f19601f8201169050808301925050505050505091929192905050506104a4565b604051808215151515815260200191505060405180910390f35b6101706004803603602081101561015a57600080fd5b810190808035906020019092919050505061069a565b6040518080602001828103825283818151815260200191508051906020019080838360005b838110156101b0578082015181840152602081019050610195565b50505050905090810190601f1680156101dd5780820380516001836020036101000a031916815260200191505b509250505060405180910390f35b6102176004803603602081101561020157600080fd5b810190808035906020019092919050505061075d565b60405180858152602001806020018060200184151515158152602001838103835286818151815260200191508051906020019080838360005b8381101561026b578082015181840152602081019050610250565b50505050905090810190601f1680156102985780820380516001836020036101000a031916815260200191505b50838103825285818151815260200191508051906020019060200280838360005b838110156102d45780820151818401526020810190506102b9565b50505050905001965050505050505060405180910390f35b6102f4610924565b6040518082815260200191505060405180910390f35b6103c36004803603602081101561032057600080fd5b810190808035906020019064010000000081111561033d57600080fd5b82018360208201111561034f57600080fd5b8035906020019184600183028401116401000000008311171561037157600080fd5b91908080601f016020809104026020016040519081016040528093929190818152602001838380828437600081840152601f19601f820116905080830192505050505050509192919290505050610930565b604051808215151515815260200191505060405180910390f35b610429600480360360408110156103f357600080fd5b8101908080359060200190929190803573ffffffffffffffffffffffffffffffffffffffff1690602001909291905050506109e4565b6040518080602001828103825283818151815260200191508051906020019080838360005b8381101561046957808201518184015260208101905061044e565b50505050905090810190601f1680156104965780820380516001836020036101000a031916815260200191505b509250505060405180910390f35b6000801515600084815481106104b657fe5b906000526020600020906003020160010160003373ffffffffffffffffffffffffffffffffffffffff1673ffffffffffffffffffffffffffffffffffffffff16815260200190815260200160002060010160009054906101000a900460ff161515141561068f57600080848154811061052b57fe5b90600052602060002090600302019050828160010160003373ffffffffffffffffffffffffffffffffffffffff1673ffffffffffffffffffffffffffffffffffffffff1681526020019081526020016000206000019080519060200190610593929190610afd565b5060018160010160003373ffffffffffffffffffffffffffffffffffffffff1673ffffffffffffffffffffffffffffffffffffffff16815260200190815260200160002060010160006101000a81548160ff021916908315150217905550806002013390806001815401808255809150509060018203906000526020600020016000909192909190916101000a81548173ffffffffffffffffffffffffffffffffffffffff021916908373ffffffffffffffffffffffffffffffffffffffff160217905550507fb863acdde45cada37fe554b215a2a34bce27e09c15719606d3fd45cd43ea1adf60405160405180910390a16001915050610694565b600090505b92915050565b600081815481106106a757fe5b9060005260206000209060030201600091509050806000018054600181600116156101000203166002900480601f0160208091040260200160405190810160405280929190818152602001828054600181600116156101000203166002900480156107535780601f1061072857610100808354040283529160200191610753565b820191906000526020600020905b81548152906001019060200180831161073657829003601f168201915b5050505050905081565b6000606080600080600080549050111561091c57600080868154811061077f57fe5b906000526020600020906003020190508581600001826002018360010160003373ffffffffffffffffffffffffffffffffffffffff1673ffffffffffffffffffffffffffffffffffffffff16815260200190815260200160002060010160009054906101000a900460ff16828054600181600116156101000203166002900480601f01602080910402602001604051908101604052809291908181526020018280546001816001161561010002031660029004801561087f5780601f106108545761010080835404028352916020019161087f565b820191906000526020600020905b81548152906001019060200180831161086257829003601f168201915b505050505092508180548060200260200160405190810160405280929190818152602001828054801561090757602002820191906000526020600020905b8160009054906101000a900473ffffffffffffffffffffffffffffffffffffffff1673ffffffffffffffffffffffffffffffffffffffff16815260200190600101908083116108bd575b5050505050915094509450945094505061091d565b5b9193509193565b60008080549050905090565b600061093a610b7d565b7ffd07401d08eef5999b1a4f010fb5d35be2107c7508526fe549d490650fe5e56f60405160405180910390a18281600001819052506000819080600181540180825580915050906001820390600052602060002090600302016000909192909190915060008201518160000190805190602001906109b9929190610b97565b5060208201518160020190805190602001906109d6929190610c17565b505050506001915050919050565b6060600080805490501115610af6576000808481548110610a0157fe5b906000526020600020906003020190508060010160008473ffffffffffffffffffffffffffffffffffffffff1673ffffffffffffffffffffffffffffffffffffffff1681526020019081526020016000206000018054600181600116156101000203166002900480601f016020809104026020016040519081016040528092919081815260200182805460018160011615610100020316600290048015610ae95780601f10610abe57610100808354040283529160200191610ae9565b820191906000526020600020905b815481529060010190602001808311610acc57829003601f168201915b5050505050915050610af7565b5b92915050565b828054600181600116156101000203166002900490600052602060002090601f016020900481019282601f10610b3e57805160ff1916838001178555610b6c565b82800160010185558215610b6c579182015b82811115610b6b578251825591602001919060010190610b50565b5b509050610b799190610ca1565b5090565b604051806040016040528060608152602001606081525090565b828054600181600116156101000203166002900490600052602060002090601f016020900481019282601f10610bd857805160ff1916838001178555610c06565b82800160010185558215610c06579182015b82811115610c05578251825591602001919060010190610bea565b5b509050610c139190610ca1565b5090565b828054828255906000526020600020908101928215610c90579160200282015b82811115610c8f5782518260006101000a81548173ffffffffffffffffffffffffffffffffffffffff021916908373ffffffffffffffffffffffffffffffffffffffff16021790555091602001919060010190610c37565b5b509050610c9d9190610cc6565b5090565b610cc391905b80821115610cbf576000816000905550600101610ca7565b5090565b90565b610d0691905b80821115610d0257600081816101000a81549073ffffffffffffffffffffffffffffffffffffffff021916905550600101610ccc565b5090565b9056fea265627a7a72315820fa0e0ae1a2303b0705117412fccd7fce7bcd4fd56d08fab5fe468825f0b6e5e564736f6c634300050c0032",
  "source": "pragma solidity ^0.5.0;\r\n\r\n\r\ncontract Zhihu {\r\n\r\n    // 问题结构\r\n    struct Question {\r\n        string title;     // 题目\r\n        mapping (address => loginUser) loginUsers;   // 用户列表\r\n        address[] loginUsersAddress;   // 所有参与评价者的地址\r\n    }\r\n    // user结构\r\n    struct loginUser {\r\n        string answer;\r\n        bool answered; // 是否评论过\r\n    }\r\n\r\n    Question[] public questions;  // 留言数组\r\n\r\n    event CreatedQuestionEvent();   // 创建新留言的事件\r\n    event CreatedAnswerEvent();  // 评论事件\r\n\r\n    // 获取当前问题个数\r\n    function getNumQuests() public view returns (uint) {\r\n        return questions.length;\r\n    }\r\n    // 获取留言详细信息\r\n    function getQuest(uint questInt) public view returns (uint, string memory, address[] memory, bool) {\r\n        if (questions.length > 0) {\r\n            Question storage p = questions[questInt]; // Get the post\r\n            // 返回的数据包括: 序号，问题内容，留言互动参与者列表，当前用户评论了没有\r\n            return (questInt, p.title, p.loginUsersAddress, p.loginUsers[msg.sender].answered);\r\n        }\r\n    }\r\n    //获取回答详细信息\r\n    function getAnswer(uint questInt,address some_user) public view returns (string memory) {\r\n        if (questions.length > 0) {\r\n            Question storage p = questions[questInt]; // Get the post\r\n            return(p.loginUsers[some_user].answer);\r\n        }\r\n    } \r\n    // 添加问题\r\n    function addPost(string memory title) public returns (bool) {\r\n        Question memory quest;\r\n        emit CreatedQuestionEvent(); //触发事件\r\n        quest.title = title; // 内容\r\n        questions.push(quest);  // 压入数组\r\n        return true;\r\n    }\r\n    // 添加回答\r\n    function answer(uint questInt, string memory ans) public returns (bool) {\r\n        if (questions[questInt].loginUsers[msg.sender].answered == false) { // 只有没回答过的才允许回答\r\n            Question storage p = questions[questInt];\r\n            p.loginUsers[msg.sender].answer = ans;\r\n            p.loginUsers[msg.sender].answered = true;   // 评论过的flag置为true\r\n            p.loginUsersAddress.push(msg.sender); // 当前用户作为参与者压入栈中\r\n            emit CreatedAnswerEvent(); //触发事件\r\n            return true;\r\n        } else {\r\n            return false;\r\n        }\r\n    }\r\n\r\n}\r\n",
  "sourcePath": "D:/yjn/webpro/ballot-demo/solidity/contracts/Zhihu.sol",
  "compiler": {
    "name": "solc",
    "version": "0.5.12+commit.7709ece9.Emscripten.clang"
  },
  "schemaVersion": "3.0.20",
  "updatedAt": "2019-12-26T14:02:27.549Z",
  "networkType": "ethereum",
  "devdoc": {
    "methods": {}
  },
  "userdoc": {
    "methods": {}
  }
}